{
	"contracts/SampleTokenSale.sol": {
		"TokenSale": {
			"abi": [
				{
					"inputs": [
						{
							"internalType": "address",
							"name": "_token",
							"type": "address"
						}
					],
					"stateMutability": "nonpayable",
					"type": "constructor"
				},
				{
					"inputs": [],
					"name": "purchaseACoffee",
					"outputs": [],
					"stateMutability": "payable",
					"type": "function"
				},
				{
					"inputs": [],
					"name": "token",
					"outputs": [
						{
							"internalType": "contract ERC20",
							"name": "",
							"type": "address"
						}
					],
					"stateMutability": "view",
					"type": "function"
				},
				{
					"inputs": [],
					"name": "tokenOwner",
					"outputs": [
						{
							"internalType": "address",
							"name": "",
							"type": "address"
						}
					],
					"stateMutability": "view",
					"type": "function"
				},
				{
					"inputs": [],
					"name": "tokenPriceInWei",
					"outputs": [
						{
							"internalType": "uint256",
							"name": "",
							"type": "uint256"
						}
					],
					"stateMutability": "view",
					"type": "function"
				}
			],
			"devdoc": {
				"kind": "dev",
				"methods": {},
				"version": 1
			},
			"evm": {
				"assembly": "    /* \"contracts/SampleTokenSale.sol\":254:916  contract TokenSale {... */\n  mstore(0x40, 0x80)\n    /* \"contracts/SampleTokenSale.sol\":309:316  1 ether */\n  0x0de0b6b3a7640000\n    /* \"contracts/SampleTokenSale.sol\":279:316  uint public tokenPriceInWei = 1 ether */\n  0x00\n  sstore\n    /* \"contracts/SampleTokenSale.sol\":380:483  constructor (address _token){... */\n  callvalue\n  dup1\n  iszero\n  tag_1\n  jumpi\n  0x00\n  dup1\n  revert\ntag_1:\n  pop\n  mload(0x40)\n  sub(codesize, bytecodeSize)\n  dup1\n  bytecodeSize\n  dup4\n  codecopy\n  dup2\n  dup2\n  add\n  0x40\n  mstore\n  dup2\n  add\n  swap1\n  tag_2\n  swap2\n  swap1\n  tag_3\n  jump\t// in\ntag_2:\n    /* \"contracts/SampleTokenSale.sol\":431:441  msg.sender */\n  caller\n    /* \"contracts/SampleTokenSale.sol\":418:428  tokenOwner */\n  0x02\n  0x00\n    /* \"contracts/SampleTokenSale.sol\":418:441  tokenOwner = msg.sender */\n  0x0100\n  exp\n  dup2\n  sload\n  dup2\n  0xffffffffffffffffffffffffffffffffffffffff\n  mul\n  not\n  and\n  swap1\n  dup4\n  0xffffffffffffffffffffffffffffffffffffffff\n  and\n  mul\n  or\n  swap1\n  sstore\n  pop\n    /* \"contracts/SampleTokenSale.sol\":465:471  _token */\n  dup1\n    /* \"contracts/SampleTokenSale.sol\":451:456  token */\n  0x01\n  0x00\n    /* \"contracts/SampleTokenSale.sol\":451:472  token = ERC20(_token) */\n  0x0100\n  exp\n  dup2\n  sload\n  dup2\n  0xffffffffffffffffffffffffffffffffffffffff\n  mul\n  not\n  and\n  swap1\n  dup4\n  0xffffffffffffffffffffffffffffffffffffffff\n  and\n  mul\n  or\n  swap1\n  sstore\n  pop\n    /* \"contracts/SampleTokenSale.sol\":380:483  constructor (address _token){... */\n  pop\n    /* \"contracts/SampleTokenSale.sol\":254:916  contract TokenSale {... */\n  jump(tag_6)\n    /* \"#utility.yul\":88:205   */\ntag_8:\n    /* \"#utility.yul\":197:198   */\n  0x00\n    /* \"#utility.yul\":194:195   */\n  dup1\n    /* \"#utility.yul\":187:199   */\n  revert\n    /* \"#utility.yul\":334:460   */\ntag_10:\n    /* \"#utility.yul\":371:378   */\n  0x00\n    /* \"#utility.yul\":411:453   */\n  0xffffffffffffffffffffffffffffffffffffffff\n    /* \"#utility.yul\":404:409   */\n  dup3\n    /* \"#utility.yul\":400:454   */\n  and\n    /* \"#utility.yul\":389:454   */\n  swap1\n  pop\n    /* \"#utility.yul\":334:460   */\n  swap2\n  swap1\n  pop\n  jump\t// out\n    /* \"#utility.yul\":466:562   */\ntag_11:\n    /* \"#utility.yul\":503:510   */\n  0x00\n    /* \"#utility.yul\":532:556   */\n  tag_20\n    /* \"#utility.yul\":550:555   */\n  dup3\n    /* \"#utility.yul\":532:556   */\n  tag_10\n  jump\t// in\ntag_20:\n    /* \"#utility.yul\":521:556   */\n  swap1\n  pop\n    /* \"#utility.yul\":466:562   */\n  swap2\n  swap1\n  pop\n  jump\t// out\n    /* \"#utility.yul\":568:690   */\ntag_12:\n    /* \"#utility.yul\":641:665   */\n  tag_22\n    /* \"#utility.yul\":659:664   */\n  dup2\n    /* \"#utility.yul\":641:665   */\n  tag_11\n  jump\t// in\ntag_22:\n    /* \"#utility.yul\":634:639   */\n  dup2\n    /* \"#utility.yul\":631:666   */\n  eq\n    /* \"#utility.yul\":621:684   */\n  tag_23\n  jumpi\n    /* \"#utility.yul\":680:681   */\n  0x00\n    /* \"#utility.yul\":677:678   */\n  dup1\n    /* \"#utility.yul\":670:682   */\n  revert\n    /* \"#utility.yul\":621:684   */\ntag_23:\n    /* \"#utility.yul\":568:690   */\n  pop\n  jump\t// out\n    /* \"#utility.yul\":696:839   */\ntag_13:\n    /* \"#utility.yul\":753:758   */\n  0x00\n    /* \"#utility.yul\":784:790   */\n  dup2\n    /* \"#utility.yul\":778:791   */\n  mload\n    /* \"#utility.yul\":769:791   */\n  swap1\n  pop\n    /* \"#utility.yul\":800:833   */\n  tag_25\n    /* \"#utility.yul\":827:832   */\n  dup2\n    /* \"#utility.yul\":800:833   */\n  tag_12\n  jump\t// in\ntag_25:\n    /* \"#utility.yul\":696:839   */\n  swap3\n  swap2\n  pop\n  pop\n  jump\t// out\n    /* \"#utility.yul\":845:1196   */\ntag_3:\n    /* \"#utility.yul\":915:921   */\n  0x00\n    /* \"#utility.yul\":964:966   */\n  0x20\n    /* \"#utility.yul\":952:961   */\n  dup3\n    /* \"#utility.yul\":943:950   */\n  dup5\n    /* \"#utility.yul\":939:962   */\n  sub\n    /* \"#utility.yul\":935:967   */\n  slt\n    /* \"#utility.yul\":932:1051   */\n  iszero\n  tag_27\n  jumpi\n    /* \"#utility.yul\":970:1049   */\n  tag_28\n  tag_8\n  jump\t// in\ntag_28:\n    /* \"#utility.yul\":932:1051   */\ntag_27:\n    /* \"#utility.yul\":1090:1091   */\n  0x00\n    /* \"#utility.yul\":1115:1179   */\n  tag_29\n    /* \"#utility.yul\":1171:1178   */\n  dup5\n    /* \"#utility.yul\":1162:1168   */\n  dup3\n    /* \"#utility.yul\":1151:1160   */\n  dup6\n    /* \"#utility.yul\":1147:1169   */\n  add\n    /* \"#utility.yul\":1115:1179   */\n  tag_13\n  jump\t// in\ntag_29:\n    /* \"#utility.yul\":1105:1179   */\n  swap2\n  pop\n    /* \"#utility.yul\":1061:1189   */\n  pop\n    /* \"#utility.yul\":845:1196   */\n  swap3\n  swap2\n  pop\n  pop\n  jump\t// out\n    /* \"contracts/SampleTokenSale.sol\":254:916  contract TokenSale {... */\ntag_6:\n  dataSize(sub_0)\n  dup1\n  dataOffset(sub_0)\n  0x00\n  codecopy\n  0x00\n  return\nstop\n\nsub_0: assembly {\n        /* \"contracts/SampleTokenSale.sol\":254:916  contract TokenSale {... */\n      mstore(0x40, 0x80)\n      jumpi(tag_1, lt(calldatasize, 0x04))\n      shr(0xe0, calldataload(0x00))\n      dup1\n      0x2f8de810\n      eq\n      tag_2\n      jumpi\n      dup1\n      0x4419d613\n      eq\n      tag_3\n      jumpi\n      dup1\n      0xa3e67610\n      eq\n      tag_4\n      jumpi\n      dup1\n      0xfc0c546a\n      eq\n      tag_5\n      jumpi\n    tag_1:\n      0x00\n      dup1\n      revert\n        /* \"contracts/SampleTokenSale.sol\":279:316  uint public tokenPriceInWei = 1 ether */\n    tag_2:\n      callvalue\n      dup1\n      iszero\n      tag_6\n      jumpi\n      0x00\n      dup1\n      revert\n    tag_6:\n      pop\n      tag_7\n      tag_8\n      jump\t// in\n    tag_7:\n      mload(0x40)\n      tag_9\n      swap2\n      swap1\n      tag_10\n      jump\t// in\n    tag_9:\n      mload(0x40)\n      dup1\n      swap2\n      sub\n      swap1\n      return\n        /* \"contracts/SampleTokenSale.sol\":489:913  function purchaseACoffee() public payable {... */\n    tag_3:\n      tag_11\n      tag_12\n      jump\t// in\n    tag_11:\n      stop\n        /* \"contracts/SampleTokenSale.sol\":348:373  address public tokenOwner */\n    tag_4:\n      callvalue\n      dup1\n      iszero\n      tag_13\n      jumpi\n      0x00\n      dup1\n      revert\n    tag_13:\n      pop\n      tag_14\n      tag_15\n      jump\t// in\n    tag_14:\n      mload(0x40)\n      tag_16\n      swap2\n      swap1\n      tag_17\n      jump\t// in\n    tag_16:\n      mload(0x40)\n      dup1\n      swap2\n      sub\n      swap1\n      return\n        /* \"contracts/SampleTokenSale.sol\":322:341  ERC20 public  token */\n    tag_5:\n      callvalue\n      dup1\n      iszero\n      tag_18\n      jumpi\n      0x00\n      dup1\n      revert\n    tag_18:\n      pop\n      tag_19\n      tag_20\n      jump\t// in\n    tag_19:\n      mload(0x40)\n      tag_21\n      swap2\n      swap1\n      tag_22\n      jump\t// in\n    tag_21:\n      mload(0x40)\n      dup1\n      swap2\n      sub\n      swap1\n      return\n        /* \"contracts/SampleTokenSale.sol\":279:316  uint public tokenPriceInWei = 1 ether */\n    tag_8:\n      sload(0x00)\n      dup2\n      jump\t// out\n        /* \"contracts/SampleTokenSale.sol\":489:913  function purchaseACoffee() public payable {... */\n    tag_12:\n        /* \"contracts/SampleTokenSale.sol\":562:577  tokenPriceInWei */\n      sload(0x00)\n        /* \"contracts/SampleTokenSale.sol\":549:558  msg.value */\n      callvalue\n        /* \"contracts/SampleTokenSale.sol\":549:577  msg.value >= tokenPriceInWei */\n      lt\n      iszero\n        /* \"contracts/SampleTokenSale.sol\":541:603  require(msg.value >= tokenPriceInWei, \"Not Enough money sent\") */\n      tag_24\n      jumpi\n      mload(0x40)\n      0x08c379a000000000000000000000000000000000000000000000000000000000\n      dup2\n      mstore\n      0x04\n      add\n      tag_25\n      swap1\n      tag_26\n      jump\t// in\n    tag_25:\n      mload(0x40)\n      dup1\n      swap2\n      sub\n      swap1\n      revert\n    tag_24:\n        /* \"contracts/SampleTokenSale.sol\":613:633  uint tokenToTransfer */\n      0x00\n        /* \"contracts/SampleTokenSale.sol\":648:663  tokenPriceInWei */\n      dup1\n      sload\n        /* \"contracts/SampleTokenSale.sol\":636:645  msg.value */\n      callvalue\n        /* \"contracts/SampleTokenSale.sol\":636:663  msg.value / tokenPriceInWei */\n      tag_27\n      swap2\n      swap1\n      tag_28\n      jump\t// in\n    tag_27:\n        /* \"contracts/SampleTokenSale.sol\":613:663  uint tokenToTransfer = msg.value / tokenPriceInWei */\n      swap1\n      pop\n        /* \"contracts/SampleTokenSale.sol\":673:687  uint remainder */\n      0x00\n        /* \"contracts/SampleTokenSale.sol\":720:735  tokenPriceInWei */\n      dup1\n      sload\n        /* \"contracts/SampleTokenSale.sol\":702:717  tokenToTransfer */\n      dup3\n        /* \"contracts/SampleTokenSale.sol\":702:735  tokenToTransfer * tokenPriceInWei */\n      tag_29\n      swap2\n      swap1\n      tag_30\n      jump\t// in\n    tag_29:\n        /* \"contracts/SampleTokenSale.sol\":690:699  msg.value */\n      callvalue\n        /* \"contracts/SampleTokenSale.sol\":690:735  msg.value - tokenToTransfer * tokenPriceInWei */\n      tag_31\n      swap2\n      swap1\n      tag_32\n      jump\t// in\n    tag_31:\n        /* \"contracts/SampleTokenSale.sol\":673:735  uint remainder = msg.value - tokenToTransfer * tokenPriceInWei */\n      swap1\n      pop\n        /* \"contracts/SampleTokenSale.sol\":745:750  token */\n      0x01\n      0x00\n      swap1\n      sload\n      swap1\n      0x0100\n      exp\n      swap1\n      div\n      0xffffffffffffffffffffffffffffffffffffffff\n      and\n        /* \"contracts/SampleTokenSale.sol\":745:763  token.transferFrom */\n      0xffffffffffffffffffffffffffffffffffffffff\n      and\n      0x23b872dd\n        /* \"contracts/SampleTokenSale.sol\":764:774  tokenOwner */\n      0x02\n      0x00\n      swap1\n      sload\n      swap1\n      0x0100\n      exp\n      swap1\n      div\n      0xffffffffffffffffffffffffffffffffffffffff\n      and\n        /* \"contracts/SampleTokenSale.sol\":776:786  msg.sender */\n      caller\n        /* \"contracts/SampleTokenSale.sol\":808:813  token */\n      0x01\n      0x00\n      swap1\n      sload\n      swap1\n      0x0100\n      exp\n      swap1\n      div\n      0xffffffffffffffffffffffffffffffffffffffff\n      and\n        /* \"contracts/SampleTokenSale.sol\":808:822  token.decimals */\n      0xffffffffffffffffffffffffffffffffffffffff\n      and\n      0x313ce567\n        /* \"contracts/SampleTokenSale.sol\":808:824  token.decimals() */\n      mload(0x40)\n      dup2\n      0xffffffff\n      and\n      0xe0\n      shl\n      dup2\n      mstore\n      0x04\n      add\n      0x20\n      mload(0x40)\n      dup1\n      dup4\n      sub\n      dup2\n      dup7\n      gas\n      staticcall\n      iszero\n      dup1\n      iszero\n      tag_34\n      jumpi\n      returndatasize\n      0x00\n      dup1\n      returndatacopy\n      revert(0x00, returndatasize)\n    tag_34:\n      pop\n      pop\n      pop\n      pop\n      mload(0x40)\n      returndatasize\n      not(0x1f)\n      0x1f\n      dup3\n      add\n      and\n      dup3\n      add\n      dup1\n      0x40\n      mstore\n      pop\n      dup2\n      add\n      swap1\n      tag_35\n      swap2\n      swap1\n      tag_36\n      jump\t// in\n    tag_35:\n        /* \"contracts/SampleTokenSale.sol\":804:806  10 */\n      0x0a\n        /* \"contracts/SampleTokenSale.sol\":804:824  10**token.decimals() */\n      tag_37\n      swap2\n      swap1\n      tag_38\n      jump\t// in\n    tag_37:\n        /* \"contracts/SampleTokenSale.sol\":788:803  tokenToTransfer */\n      dup7\n        /* \"contracts/SampleTokenSale.sol\":788:824  tokenToTransfer*10**token.decimals() */\n      tag_39\n      swap2\n      swap1\n      tag_30\n      jump\t// in\n    tag_39:\n        /* \"contracts/SampleTokenSale.sol\":745:825  token.transferFrom(tokenOwner, msg.sender, tokenToTransfer*10**token.decimals()) */\n      mload(0x40)\n      dup5\n      0xffffffff\n      and\n      0xe0\n      shl\n      dup2\n      mstore\n      0x04\n      add\n      tag_40\n      swap4\n      swap3\n      swap2\n      swap1\n      tag_41\n      jump\t// in\n    tag_40:\n      0x20\n      mload(0x40)\n      dup1\n      dup4\n      sub\n      dup2\n      0x00\n      dup8\n      gas\n      call\n      iszero\n      dup1\n      iszero\n      tag_43\n      jumpi\n      returndatasize\n      0x00\n      dup1\n      returndatacopy\n      revert(0x00, returndatasize)\n    tag_43:\n      pop\n      pop\n      pop\n      pop\n      mload(0x40)\n      returndatasize\n      not(0x1f)\n      0x1f\n      dup3\n      add\n      and\n      dup3\n      add\n      dup1\n      0x40\n      mstore\n      pop\n      dup2\n      add\n      swap1\n      tag_44\n      swap2\n      swap1\n      tag_45\n      jump\t// in\n    tag_44:\n      pop\n        /* \"contracts/SampleTokenSale.sol\":844:854  msg.sender */\n      caller\n        /* \"contracts/SampleTokenSale.sol\":835:864  payable (msg.sender).transfer */\n      0xffffffffffffffffffffffffffffffffffffffff\n      and\n        /* \"contracts/SampleTokenSale.sol\":835:875  payable (msg.sender).transfer(remainder) */\n      0x08fc\n        /* \"contracts/SampleTokenSale.sol\":865:874  remainder */\n      dup3\n        /* \"contracts/SampleTokenSale.sol\":835:875  payable (msg.sender).transfer(remainder) */\n      swap1\n      dup2\n      iszero\n      mul\n      swap1\n      mload(0x40)\n      0x00\n      mload(0x40)\n      dup1\n      dup4\n      sub\n      dup2\n      dup6\n      dup9\n      dup9\n      call\n      swap4\n      pop\n      pop\n      pop\n      pop\n      iszero\n      dup1\n      iszero\n      tag_47\n      jumpi\n      returndatasize\n      0x00\n      dup1\n      returndatacopy\n      revert(0x00, returndatasize)\n    tag_47:\n      pop\n        /* \"contracts/SampleTokenSale.sol\":531:913  {... */\n      pop\n      pop\n        /* \"contracts/SampleTokenSale.sol\":489:913  function purchaseACoffee() public payable {... */\n      jump\t// out\n        /* \"contracts/SampleTokenSale.sol\":348:373  address public tokenOwner */\n    tag_15:\n      0x02\n      0x00\n      swap1\n      sload\n      swap1\n      0x0100\n      exp\n      swap1\n      div\n      0xffffffffffffffffffffffffffffffffffffffff\n      and\n      dup2\n      jump\t// out\n        /* \"contracts/SampleTokenSale.sol\":322:341  ERC20 public  token */\n    tag_20:\n      0x01\n      0x00\n      swap1\n      sload\n      swap1\n      0x0100\n      exp\n      swap1\n      div\n      0xffffffffffffffffffffffffffffffffffffffff\n      and\n      dup2\n      jump\t// out\n        /* \"#utility.yul\":7:84   */\n    tag_48:\n        /* \"#utility.yul\":44:51   */\n      0x00\n        /* \"#utility.yul\":73:78   */\n      dup2\n        /* \"#utility.yul\":62:78   */\n      swap1\n      pop\n        /* \"#utility.yul\":7:84   */\n      swap2\n      swap1\n      pop\n      jump\t// out\n        /* \"#utility.yul\":90:208   */\n    tag_49:\n        /* \"#utility.yul\":177:201   */\n      tag_78\n        /* \"#utility.yul\":195:200   */\n      dup2\n        /* \"#utility.yul\":177:201   */\n      tag_48\n      jump\t// in\n    tag_78:\n        /* \"#utility.yul\":172:175   */\n      dup3\n        /* \"#utility.yul\":165:202   */\n      mstore\n        /* \"#utility.yul\":90:208   */\n      pop\n      pop\n      jump\t// out\n        /* \"#utility.yul\":214:436   */\n    tag_10:\n        /* \"#utility.yul\":307:311   */\n      0x00\n        /* \"#utility.yul\":345:347   */\n      0x20\n        /* \"#utility.yul\":334:343   */\n      dup3\n        /* \"#utility.yul\":330:348   */\n      add\n        /* \"#utility.yul\":322:348   */\n      swap1\n      pop\n        /* \"#utility.yul\":358:429   */\n      tag_80\n        /* \"#utility.yul\":426:427   */\n      0x00\n        /* \"#utility.yul\":415:424   */\n      dup4\n        /* \"#utility.yul\":411:428   */\n      add\n        /* \"#utility.yul\":402:408   */\n      dup5\n        /* \"#utility.yul\":358:429   */\n      tag_49\n      jump\t// in\n    tag_80:\n        /* \"#utility.yul\":214:436   */\n      swap3\n      swap2\n      pop\n      pop\n      jump\t// out\n        /* \"#utility.yul\":442:568   */\n    tag_50:\n        /* \"#utility.yul\":479:486   */\n      0x00\n        /* \"#utility.yul\":519:561   */\n      0xffffffffffffffffffffffffffffffffffffffff\n        /* \"#utility.yul\":512:517   */\n      dup3\n        /* \"#utility.yul\":508:562   */\n      and\n        /* \"#utility.yul\":497:562   */\n      swap1\n      pop\n        /* \"#utility.yul\":442:568   */\n      swap2\n      swap1\n      pop\n      jump\t// out\n        /* \"#utility.yul\":574:670   */\n    tag_51:\n        /* \"#utility.yul\":611:618   */\n      0x00\n        /* \"#utility.yul\":640:664   */\n      tag_83\n        /* \"#utility.yul\":658:663   */\n      dup3\n        /* \"#utility.yul\":640:664   */\n      tag_50\n      jump\t// in\n    tag_83:\n        /* \"#utility.yul\":629:664   */\n      swap1\n      pop\n        /* \"#utility.yul\":574:670   */\n      swap2\n      swap1\n      pop\n      jump\t// out\n        /* \"#utility.yul\":676:794   */\n    tag_52:\n        /* \"#utility.yul\":763:787   */\n      tag_85\n        /* \"#utility.yul\":781:786   */\n      dup2\n        /* \"#utility.yul\":763:787   */\n      tag_51\n      jump\t// in\n    tag_85:\n        /* \"#utility.yul\":758:761   */\n      dup3\n        /* \"#utility.yul\":751:788   */\n      mstore\n        /* \"#utility.yul\":676:794   */\n      pop\n      pop\n      jump\t// out\n        /* \"#utility.yul\":800:1022   */\n    tag_17:\n        /* \"#utility.yul\":893:897   */\n      0x00\n        /* \"#utility.yul\":931:933   */\n      0x20\n        /* \"#utility.yul\":920:929   */\n      dup3\n        /* \"#utility.yul\":916:934   */\n      add\n        /* \"#utility.yul\":908:934   */\n      swap1\n      pop\n        /* \"#utility.yul\":944:1015   */\n      tag_87\n        /* \"#utility.yul\":1012:1013   */\n      0x00\n        /* \"#utility.yul\":1001:1010   */\n      dup4\n        /* \"#utility.yul\":997:1014   */\n      add\n        /* \"#utility.yul\":988:994   */\n      dup5\n        /* \"#utility.yul\":944:1015   */\n      tag_52\n      jump\t// in\n    tag_87:\n        /* \"#utility.yul\":800:1022   */\n      swap3\n      swap2\n      pop\n      pop\n      jump\t// out\n        /* \"#utility.yul\":1028:1088   */\n    tag_53:\n        /* \"#utility.yul\":1056:1059   */\n      0x00\n        /* \"#utility.yul\":1077:1082   */\n      dup2\n        /* \"#utility.yul\":1070:1082   */\n      swap1\n      pop\n        /* \"#utility.yul\":1028:1088   */\n      swap2\n      swap1\n      pop\n      jump\t// out\n        /* \"#utility.yul\":1094:1236   */\n    tag_54:\n        /* \"#utility.yul\":1144:1153   */\n      0x00\n        /* \"#utility.yul\":1177:1230   */\n      tag_90\n        /* \"#utility.yul\":1195:1229   */\n      tag_91\n        /* \"#utility.yul\":1204:1228   */\n      tag_92\n        /* \"#utility.yul\":1222:1227   */\n      dup5\n        /* \"#utility.yul\":1204:1228   */\n      tag_50\n      jump\t// in\n    tag_92:\n        /* \"#utility.yul\":1195:1229   */\n      tag_53\n      jump\t// in\n    tag_91:\n        /* \"#utility.yul\":1177:1230   */\n      tag_50\n      jump\t// in\n    tag_90:\n        /* \"#utility.yul\":1164:1230   */\n      swap1\n      pop\n        /* \"#utility.yul\":1094:1236   */\n      swap2\n      swap1\n      pop\n      jump\t// out\n        /* \"#utility.yul\":1242:1368   */\n    tag_55:\n        /* \"#utility.yul\":1292:1301   */\n      0x00\n        /* \"#utility.yul\":1325:1362   */\n      tag_94\n        /* \"#utility.yul\":1356:1361   */\n      dup3\n        /* \"#utility.yul\":1325:1362   */\n      tag_54\n      jump\t// in\n    tag_94:\n        /* \"#utility.yul\":1312:1362   */\n      swap1\n      pop\n        /* \"#utility.yul\":1242:1368   */\n      swap2\n      swap1\n      pop\n      jump\t// out\n        /* \"#utility.yul\":1374:1512   */\n    tag_56:\n        /* \"#utility.yul\":1436:1445   */\n      0x00\n        /* \"#utility.yul\":1469:1506   */\n      tag_96\n        /* \"#utility.yul\":1500:1505   */\n      dup3\n        /* \"#utility.yul\":1469:1506   */\n      tag_55\n      jump\t// in\n    tag_96:\n        /* \"#utility.yul\":1456:1506   */\n      swap1\n      pop\n        /* \"#utility.yul\":1374:1512   */\n      swap2\n      swap1\n      pop\n      jump\t// out\n        /* \"#utility.yul\":1518:1673   */\n    tag_57:\n        /* \"#utility.yul\":1617:1666   */\n      tag_98\n        /* \"#utility.yul\":1660:1665   */\n      dup2\n        /* \"#utility.yul\":1617:1666   */\n      tag_56\n      jump\t// in\n    tag_98:\n        /* \"#utility.yul\":1612:1615   */\n      dup3\n        /* \"#utility.yul\":1605:1667   */\n      mstore\n        /* \"#utility.yul\":1518:1673   */\n      pop\n      pop\n      jump\t// out\n        /* \"#utility.yul\":1679:1925   */\n    tag_22:\n        /* \"#utility.yul\":1784:1788   */\n      0x00\n        /* \"#utility.yul\":1822:1824   */\n      0x20\n        /* \"#utility.yul\":1811:1820   */\n      dup3\n        /* \"#utility.yul\":1807:1825   */\n      add\n        /* \"#utility.yul\":1799:1825   */\n      swap1\n      pop\n        /* \"#utility.yul\":1835:1918   */\n      tag_100\n        /* \"#utility.yul\":1915:1916   */\n      0x00\n        /* \"#utility.yul\":1904:1913   */\n      dup4\n        /* \"#utility.yul\":1900:1917   */\n      add\n        /* \"#utility.yul\":1891:1897   */\n      dup5\n        /* \"#utility.yul\":1835:1918   */\n      tag_57\n      jump\t// in\n    tag_100:\n        /* \"#utility.yul\":1679:1925   */\n      swap3\n      swap2\n      pop\n      pop\n      jump\t// out\n        /* \"#utility.yul\":1931:2100   */\n    tag_58:\n        /* \"#utility.yul\":2015:2026   */\n      0x00\n        /* \"#utility.yul\":2049:2055   */\n      dup3\n        /* \"#utility.yul\":2044:2047   */\n      dup3\n        /* \"#utility.yul\":2037:2056   */\n      mstore\n        /* \"#utility.yul\":2089:2093   */\n      0x20\n        /* \"#utility.yul\":2084:2087   */\n      dup3\n        /* \"#utility.yul\":2080:2094   */\n      add\n        /* \"#utility.yul\":2065:2094   */\n      swap1\n      pop\n        /* \"#utility.yul\":1931:2100   */\n      swap3\n      swap2\n      pop\n      pop\n      jump\t// out\n        /* \"#utility.yul\":2106:2277   */\n    tag_59:\n        /* \"#utility.yul\":2246:2269   */\n      0x4e6f7420456e6f756768206d6f6e65792073656e740000000000000000000000\n        /* \"#utility.yul\":2242:2243   */\n      0x00\n        /* \"#utility.yul\":2234:2240   */\n      dup3\n        /* \"#utility.yul\":2230:2244   */\n      add\n        /* \"#utility.yul\":2223:2270   */\n      mstore\n        /* \"#utility.yul\":2106:2277   */\n      pop\n      jump\t// out\n        /* \"#utility.yul\":2283:2649   */\n    tag_60:\n        /* \"#utility.yul\":2425:2428   */\n      0x00\n        /* \"#utility.yul\":2446:2513   */\n      tag_104\n        /* \"#utility.yul\":2510:2512   */\n      0x15\n        /* \"#utility.yul\":2505:2508   */\n      dup4\n        /* \"#utility.yul\":2446:2513   */\n      tag_58\n      jump\t// in\n    tag_104:\n        /* \"#utility.yul\":2439:2513   */\n      swap2\n      pop\n        /* \"#utility.yul\":2522:2615   */\n      tag_105\n        /* \"#utility.yul\":2611:2614   */\n      dup3\n        /* \"#utility.yul\":2522:2615   */\n      tag_59\n      jump\t// in\n    tag_105:\n        /* \"#utility.yul\":2640:2642   */\n      0x20\n        /* \"#utility.yul\":2635:2638   */\n      dup3\n        /* \"#utility.yul\":2631:2643   */\n      add\n        /* \"#utility.yul\":2624:2643   */\n      swap1\n      pop\n        /* \"#utility.yul\":2283:2649   */\n      swap2\n      swap1\n      pop\n      jump\t// out\n        /* \"#utility.yul\":2655:3074   */\n    tag_26:\n        /* \"#utility.yul\":2821:2825   */\n      0x00\n        /* \"#utility.yul\":2859:2861   */\n      0x20\n        /* \"#utility.yul\":2848:2857   */\n      dup3\n        /* \"#utility.yul\":2844:2862   */\n      add\n        /* \"#utility.yul\":2836:2862   */\n      swap1\n      pop\n        /* \"#utility.yul\":2908:2917   */\n      dup2\n        /* \"#utility.yul\":2902:2906   */\n      dup2\n        /* \"#utility.yul\":2898:2918   */\n      sub\n        /* \"#utility.yul\":2894:2895   */\n      0x00\n        /* \"#utility.yul\":2883:2892   */\n      dup4\n        /* \"#utility.yul\":2879:2896   */\n      add\n        /* \"#utility.yul\":2872:2919   */\n      mstore\n        /* \"#utility.yul\":2936:3067   */\n      tag_107\n        /* \"#utility.yul\":3062:3066   */\n      dup2\n        /* \"#utility.yul\":2936:3067   */\n      tag_60\n      jump\t// in\n    tag_107:\n        /* \"#utility.yul\":2928:3067   */\n      swap1\n      pop\n        /* \"#utility.yul\":2655:3074   */\n      swap2\n      swap1\n      pop\n      jump\t// out\n        /* \"#utility.yul\":3080:3260   */\n    tag_61:\n        /* \"#utility.yul\":3128:3205   */\n      0x4e487b7100000000000000000000000000000000000000000000000000000000\n        /* \"#utility.yul\":3125:3126   */\n      0x00\n        /* \"#utility.yul\":3118:3206   */\n      mstore\n        /* \"#utility.yul\":3225:3229   */\n      0x12\n        /* \"#utility.yul\":3222:3223   */\n      0x04\n        /* \"#utility.yul\":3215:3230   */\n      mstore\n        /* \"#utility.yul\":3249:3253   */\n      0x24\n        /* \"#utility.yul\":3246:3247   */\n      0x00\n        /* \"#utility.yul\":3239:3254   */\n      revert\n        /* \"#utility.yul\":3266:3446   */\n    tag_62:\n        /* \"#utility.yul\":3314:3391   */\n      0x4e487b7100000000000000000000000000000000000000000000000000000000\n        /* \"#utility.yul\":3311:3312   */\n      0x00\n        /* \"#utility.yul\":3304:3392   */\n      mstore\n        /* \"#utility.yul\":3411:3415   */\n      0x11\n        /* \"#utility.yul\":3408:3409   */\n      0x04\n        /* \"#utility.yul\":3401:3416   */\n      mstore\n        /* \"#utility.yul\":3435:3439   */\n      0x24\n        /* \"#utility.yul\":3432:3433   */\n      0x00\n        /* \"#utility.yul\":3425:3440   */\n      revert\n        /* \"#utility.yul\":3452:3637   */\n    tag_28:\n        /* \"#utility.yul\":3492:3493   */\n      0x00\n        /* \"#utility.yul\":3509:3529   */\n      tag_111\n        /* \"#utility.yul\":3527:3528   */\n      dup3\n        /* \"#utility.yul\":3509:3529   */\n      tag_48\n      jump\t// in\n    tag_111:\n        /* \"#utility.yul\":3504:3529   */\n      swap2\n      pop\n        /* \"#utility.yul\":3543:3563   */\n      tag_112\n        /* \"#utility.yul\":3561:3562   */\n      dup4\n        /* \"#utility.yul\":3543:3563   */\n      tag_48\n      jump\t// in\n    tag_112:\n        /* \"#utility.yul\":3538:3563   */\n      swap3\n      pop\n        /* \"#utility.yul\":3582:3583   */\n      dup3\n        /* \"#utility.yul\":3572:3607   */\n      tag_113\n      jumpi\n        /* \"#utility.yul\":3587:3605   */\n      tag_114\n      tag_61\n      jump\t// in\n    tag_114:\n        /* \"#utility.yul\":3572:3607   */\n    tag_113:\n        /* \"#utility.yul\":3629:3630   */\n      dup3\n        /* \"#utility.yul\":3626:3627   */\n      dup3\n        /* \"#utility.yul\":3622:3631   */\n      div\n        /* \"#utility.yul\":3617:3631   */\n      swap1\n      pop\n        /* \"#utility.yul\":3452:3637   */\n      swap3\n      swap2\n      pop\n      pop\n      jump\t// out\n        /* \"#utility.yul\":3643:3991   */\n    tag_30:\n        /* \"#utility.yul\":3683:3690   */\n      0x00\n        /* \"#utility.yul\":3706:3726   */\n      tag_116\n        /* \"#utility.yul\":3724:3725   */\n      dup3\n        /* \"#utility.yul\":3706:3726   */\n      tag_48\n      jump\t// in\n    tag_116:\n        /* \"#utility.yul\":3701:3726   */\n      swap2\n      pop\n        /* \"#utility.yul\":3740:3760   */\n      tag_117\n        /* \"#utility.yul\":3758:3759   */\n      dup4\n        /* \"#utility.yul\":3740:3760   */\n      tag_48\n      jump\t// in\n    tag_117:\n        /* \"#utility.yul\":3735:3760   */\n      swap3\n      pop\n        /* \"#utility.yul\":3928:3929   */\n      dup2\n        /* \"#utility.yul\":3860:3926   */\n      0xffffffffffffffffffffffffffffffffffffffffffffffffffffffffffffffff\n        /* \"#utility.yul\":3856:3930   */\n      div\n        /* \"#utility.yul\":3853:3854   */\n      dup4\n        /* \"#utility.yul\":3850:3931   */\n      gt\n        /* \"#utility.yul\":3845:3846   */\n      dup3\n        /* \"#utility.yul\":3838:3847   */\n      iszero\n        /* \"#utility.yul\":3831:3848   */\n      iszero\n        /* \"#utility.yul\":3827:3932   */\n      and\n        /* \"#utility.yul\":3824:3955   */\n      iszero\n      tag_118\n      jumpi\n        /* \"#utility.yul\":3935:3953   */\n      tag_119\n      tag_62\n      jump\t// in\n    tag_119:\n        /* \"#utility.yul\":3824:3955   */\n    tag_118:\n        /* \"#utility.yul\":3983:3984   */\n      dup3\n        /* \"#utility.yul\":3980:3981   */\n      dup3\n        /* \"#utility.yul\":3976:3985   */\n      mul\n        /* \"#utility.yul\":3965:3985   */\n      swap1\n      pop\n        /* \"#utility.yul\":3643:3991   */\n      swap3\n      swap2\n      pop\n      pop\n      jump\t// out\n        /* \"#utility.yul\":3997:4191   */\n    tag_32:\n        /* \"#utility.yul\":4037:4041   */\n      0x00\n        /* \"#utility.yul\":4057:4077   */\n      tag_121\n        /* \"#utility.yul\":4075:4076   */\n      dup3\n        /* \"#utility.yul\":4057:4077   */\n      tag_48\n      jump\t// in\n    tag_121:\n        /* \"#utility.yul\":4052:4077   */\n      swap2\n      pop\n        /* \"#utility.yul\":4091:4111   */\n      tag_122\n        /* \"#utility.yul\":4109:4110   */\n      dup4\n        /* \"#utility.yul\":4091:4111   */\n      tag_48\n      jump\t// in\n    tag_122:\n        /* \"#utility.yul\":4086:4111   */\n      swap3\n      pop\n        /* \"#utility.yul\":4135:4136   */\n      dup3\n        /* \"#utility.yul\":4132:4133   */\n      dup3\n        /* \"#utility.yul\":4128:4137   */\n      sub\n        /* \"#utility.yul\":4120:4137   */\n      swap1\n      pop\n        /* \"#utility.yul\":4159:4160   */\n      dup2\n        /* \"#utility.yul\":4153:4157   */\n      dup2\n        /* \"#utility.yul\":4150:4161   */\n      gt\n        /* \"#utility.yul\":4147:4184   */\n      iszero\n      tag_123\n      jumpi\n        /* \"#utility.yul\":4164:4182   */\n      tag_124\n      tag_62\n      jump\t// in\n    tag_124:\n        /* \"#utility.yul\":4147:4184   */\n    tag_123:\n        /* \"#utility.yul\":3997:4191   */\n      swap3\n      swap2\n      pop\n      pop\n      jump\t// out\n        /* \"#utility.yul\":4278:4395   */\n    tag_64:\n        /* \"#utility.yul\":4387:4388   */\n      0x00\n        /* \"#utility.yul\":4384:4385   */\n      dup1\n        /* \"#utility.yul\":4377:4389   */\n      revert\n        /* \"#utility.yul\":4524:4610   */\n    tag_66:\n        /* \"#utility.yul\":4559:4566   */\n      0x00\n        /* \"#utility.yul\":4599:4603   */\n      0xff\n        /* \"#utility.yul\":4592:4597   */\n      dup3\n        /* \"#utility.yul\":4588:4604   */\n      and\n        /* \"#utility.yul\":4577:4604   */\n      swap1\n      pop\n        /* \"#utility.yul\":4524:4610   */\n      swap2\n      swap1\n      pop\n      jump\t// out\n        /* \"#utility.yul\":4616:4734   */\n    tag_67:\n        /* \"#utility.yul\":4687:4709   */\n      tag_130\n        /* \"#utility.yul\":4703:4708   */\n      dup2\n        /* \"#utility.yul\":4687:4709   */\n      tag_66\n      jump\t// in\n    tag_130:\n        /* \"#utility.yul\":4680:4685   */\n      dup2\n        /* \"#utility.yul\":4677:4710   */\n      eq\n        /* \"#utility.yul\":4667:4728   */\n      tag_131\n      jumpi\n        /* \"#utility.yul\":4724:4725   */\n      0x00\n        /* \"#utility.yul\":4721:4722   */\n      dup1\n        /* \"#utility.yul\":4714:4726   */\n      revert\n        /* \"#utility.yul\":4667:4728   */\n    tag_131:\n        /* \"#utility.yul\":4616:4734   */\n      pop\n      jump\t// out\n        /* \"#utility.yul\":4740:4879   */\n    tag_68:\n        /* \"#utility.yul\":4795:4800   */\n      0x00\n        /* \"#utility.yul\":4826:4832   */\n      dup2\n        /* \"#utility.yul\":4820:4833   */\n      mload\n        /* \"#utility.yul\":4811:4833   */\n      swap1\n      pop\n        /* \"#utility.yul\":4842:4873   */\n      tag_133\n        /* \"#utility.yul\":4867:4872   */\n      dup2\n        /* \"#utility.yul\":4842:4873   */\n      tag_67\n      jump\t// in\n    tag_133:\n        /* \"#utility.yul\":4740:4879   */\n      swap3\n      swap2\n      pop\n      pop\n      jump\t// out\n        /* \"#utility.yul\":4885:5232   */\n    tag_36:\n        /* \"#utility.yul\":4953:4959   */\n      0x00\n        /* \"#utility.yul\":5002:5004   */\n      0x20\n        /* \"#utility.yul\":4990:4999   */\n      dup3\n        /* \"#utility.yul\":4981:4988   */\n      dup5\n        /* \"#utility.yul\":4977:5000   */\n      sub\n        /* \"#utility.yul\":4973:5005   */\n      slt\n        /* \"#utility.yul\":4970:5089   */\n      iszero\n      tag_135\n      jumpi\n        /* \"#utility.yul\":5008:5087   */\n      tag_136\n      tag_64\n      jump\t// in\n    tag_136:\n        /* \"#utility.yul\":4970:5089   */\n    tag_135:\n        /* \"#utility.yul\":5128:5129   */\n      0x00\n        /* \"#utility.yul\":5153:5215   */\n      tag_137\n        /* \"#utility.yul\":5207:5214   */\n      dup5\n        /* \"#utility.yul\":5198:5204   */\n      dup3\n        /* \"#utility.yul\":5187:5196   */\n      dup6\n        /* \"#utility.yul\":5183:5205   */\n      add\n        /* \"#utility.yul\":5153:5215   */\n      tag_68\n      jump\t// in\n    tag_137:\n        /* \"#utility.yul\":5143:5215   */\n      swap2\n      pop\n        /* \"#utility.yul\":5099:5225   */\n      pop\n        /* \"#utility.yul\":4885:5232   */\n      swap3\n      swap2\n      pop\n      pop\n      jump\t// out\n        /* \"#utility.yul\":5238:5340   */\n    tag_69:\n        /* \"#utility.yul\":5280:5288   */\n      0x00\n        /* \"#utility.yul\":5327:5332   */\n      dup2\n        /* \"#utility.yul\":5324:5325   */\n      0x01\n        /* \"#utility.yul\":5320:5333   */\n      shr\n        /* \"#utility.yul\":5299:5333   */\n      swap1\n      pop\n        /* \"#utility.yul\":5238:5340   */\n      swap2\n      swap1\n      pop\n      jump\t// out\n        /* \"#utility.yul\":5346:6194   */\n    tag_70:\n        /* \"#utility.yul\":5407:5412   */\n      0x00\n        /* \"#utility.yul\":5414:5418   */\n      dup1\n        /* \"#utility.yul\":5438:5444   */\n      dup3\n        /* \"#utility.yul\":5429:5444   */\n      swap2\n      pop\n        /* \"#utility.yul\":5462:5467   */\n      dup4\n        /* \"#utility.yul\":5453:5467   */\n      swap1\n      pop\n        /* \"#utility.yul\":5476:6188   */\n    tag_140:\n        /* \"#utility.yul\":5497:5498   */\n      0x01\n        /* \"#utility.yul\":5487:5495   */\n      dup6\n        /* \"#utility.yul\":5484:5499   */\n      gt\n        /* \"#utility.yul\":5476:6188   */\n      iszero\n      tag_142\n      jumpi\n        /* \"#utility.yul\":5592:5596   */\n      dup1\n        /* \"#utility.yul\":5587:5590   */\n      dup7\n        /* \"#utility.yul\":5583:5597   */\n      div\n        /* \"#utility.yul\":5577:5581   */\n      dup2\n        /* \"#utility.yul\":5574:5598   */\n      gt\n        /* \"#utility.yul\":5571:5621   */\n      iszero\n      tag_143\n      jumpi\n        /* \"#utility.yul\":5601:5619   */\n      tag_144\n      tag_62\n      jump\t// in\n    tag_144:\n        /* \"#utility.yul\":5571:5621   */\n    tag_143:\n        /* \"#utility.yul\":5651:5652   */\n      0x01\n        /* \"#utility.yul\":5641:5649   */\n      dup6\n        /* \"#utility.yul\":5637:5653   */\n      and\n        /* \"#utility.yul\":5634:6085   */\n      iszero\n      tag_145\n      jumpi\n        /* \"#utility.yul\":6066:6070   */\n      dup1\n        /* \"#utility.yul\":6059:6064   */\n      dup3\n        /* \"#utility.yul\":6055:6071   */\n      mul\n        /* \"#utility.yul\":6046:6071   */\n      swap2\n      pop\n        /* \"#utility.yul\":5634:6085   */\n    tag_145:\n        /* \"#utility.yul\":6116:6120   */\n      dup1\n        /* \"#utility.yul\":6110:6114   */\n      dup2\n        /* \"#utility.yul\":6106:6121   */\n      mul\n        /* \"#utility.yul\":6098:6121   */\n      swap1\n      pop\n        /* \"#utility.yul\":6146:6178   */\n      tag_146\n        /* \"#utility.yul\":6169:6177   */\n      dup6\n        /* \"#utility.yul\":6146:6178   */\n      tag_69\n      jump\t// in\n    tag_146:\n        /* \"#utility.yul\":6134:6178   */\n      swap5\n      pop\n        /* \"#utility.yul\":5476:6188   */\n      jump(tag_140)\n    tag_142:\n        /* \"#utility.yul\":5346:6194   */\n      swap5\n      pop\n      swap5\n      swap3\n      pop\n      pop\n      pop\n      jump\t// out\n        /* \"#utility.yul\":6200:7273   */\n    tag_71:\n        /* \"#utility.yul\":6254:6259   */\n      0x00\n        /* \"#utility.yul\":6445:6453   */\n      dup3\n        /* \"#utility.yul\":6435:6475   */\n      tag_148\n      jumpi\n        /* \"#utility.yul\":6466:6467   */\n      0x01\n        /* \"#utility.yul\":6457:6467   */\n      swap1\n      pop\n        /* \"#utility.yul\":6468:6473   */\n      jump(tag_147)\n        /* \"#utility.yul\":6435:6475   */\n    tag_148:\n        /* \"#utility.yul\":6494:6498   */\n      dup2\n        /* \"#utility.yul\":6484:6520   */\n      tag_149\n      jumpi\n        /* \"#utility.yul\":6511:6512   */\n      0x00\n        /* \"#utility.yul\":6502:6512   */\n      swap1\n      pop\n        /* \"#utility.yul\":6513:6518   */\n      jump(tag_147)\n        /* \"#utility.yul\":6484:6520   */\n    tag_149:\n        /* \"#utility.yul\":6580:6584   */\n      dup2\n        /* \"#utility.yul\":6628:6629   */\n      0x01\n        /* \"#utility.yul\":6623:6650   */\n      dup2\n      eq\n      tag_151\n      jumpi\n        /* \"#utility.yul\":6664:6665   */\n      0x02\n        /* \"#utility.yul\":6659:6850   */\n      dup2\n      eq\n      tag_152\n      jumpi\n        /* \"#utility.yul\":6573:6850   */\n      jump(tag_150)\n        /* \"#utility.yul\":6623:6650   */\n    tag_151:\n        /* \"#utility.yul\":6641:6642   */\n      0x01\n        /* \"#utility.yul\":6632:6642   */\n      swap2\n      pop\n        /* \"#utility.yul\":6643:6648   */\n      pop\n      jump(tag_147)\n        /* \"#utility.yul\":6659:6850   */\n    tag_152:\n        /* \"#utility.yul\":6704:6707   */\n      0xff\n        /* \"#utility.yul\":6694:6702   */\n      dup5\n        /* \"#utility.yul\":6691:6708   */\n      gt\n        /* \"#utility.yul\":6688:6731   */\n      iszero\n      tag_153\n      jumpi\n        /* \"#utility.yul\":6711:6729   */\n      tag_154\n      tag_62\n      jump\t// in\n    tag_154:\n        /* \"#utility.yul\":6688:6731   */\n    tag_153:\n        /* \"#utility.yul\":6760:6768   */\n      dup4\n        /* \"#utility.yul\":6757:6758   */\n      0x02\n        /* \"#utility.yul\":6753:6769   */\n      exp\n        /* \"#utility.yul\":6744:6769   */\n      swap2\n      pop\n        /* \"#utility.yul\":6795:6798   */\n      dup5\n        /* \"#utility.yul\":6788:6793   */\n      dup3\n        /* \"#utility.yul\":6785:6799   */\n      gt\n        /* \"#utility.yul\":6782:6822   */\n      iszero\n      tag_155\n      jumpi\n        /* \"#utility.yul\":6802:6820   */\n      tag_156\n      tag_62\n      jump\t// in\n    tag_156:\n        /* \"#utility.yul\":6782:6822   */\n    tag_155:\n        /* \"#utility.yul\":6835:6840   */\n      pop\n      jump(tag_147)\n        /* \"#utility.yul\":6573:6850   */\n    tag_150:\n      pop\n        /* \"#utility.yul\":6959:6961   */\n      0x20\n        /* \"#utility.yul\":6949:6957   */\n      dup4\n        /* \"#utility.yul\":6946:6962   */\n      lt\n        /* \"#utility.yul\":6940:6943   */\n      0x0133\n        /* \"#utility.yul\":6934:6938   */\n      dup4\n        /* \"#utility.yul\":6931:6944   */\n      lt\n        /* \"#utility.yul\":6927:6963   */\n      and\n        /* \"#utility.yul\":6909:6911   */\n      0x4e\n        /* \"#utility.yul\":6899:6907   */\n      dup5\n        /* \"#utility.yul\":6896:6912   */\n      lt\n        /* \"#utility.yul\":6891:6893   */\n      0x0b\n        /* \"#utility.yul\":6885:6889   */\n      dup5\n        /* \"#utility.yul\":6882:6894   */\n      lt\n        /* \"#utility.yul\":6878:6913   */\n      and\n        /* \"#utility.yul\":6862:6973   */\n      or\n        /* \"#utility.yul\":6859:7105   */\n      iszero\n      tag_157\n      jumpi\n        /* \"#utility.yul\":7015:7023   */\n      dup3\n        /* \"#utility.yul\":7009:7013   */\n      dup3\n        /* \"#utility.yul\":7005:7024   */\n      exp\n        /* \"#utility.yul\":6996:7024   */\n      swap1\n      pop\n        /* \"#utility.yul\":7050:7053   */\n      dup4\n        /* \"#utility.yul\":7043:7048   */\n      dup2\n        /* \"#utility.yul\":7040:7054   */\n      gt\n        /* \"#utility.yul\":7037:7077   */\n      iszero\n      tag_158\n      jumpi\n        /* \"#utility.yul\":7057:7075   */\n      tag_159\n      tag_62\n      jump\t// in\n    tag_159:\n        /* \"#utility.yul\":7037:7077   */\n    tag_158:\n        /* \"#utility.yul\":7090:7095   */\n      jump(tag_147)\n        /* \"#utility.yul\":6859:7105   */\n    tag_157:\n        /* \"#utility.yul\":7130:7172   */\n      tag_160\n        /* \"#utility.yul\":7168:7171   */\n      dup5\n        /* \"#utility.yul\":7158:7166   */\n      dup5\n        /* \"#utility.yul\":7152:7156   */\n      dup5\n        /* \"#utility.yul\":7149:7150   */\n      0x01\n        /* \"#utility.yul\":7130:7172   */\n      tag_70\n      jump\t// in\n    tag_160:\n        /* \"#utility.yul\":7115:7172   */\n      swap3\n      pop\n      swap1\n      pop\n        /* \"#utility.yul\":7204:7208   */\n      dup2\n        /* \"#utility.yul\":7199:7202   */\n      dup5\n        /* \"#utility.yul\":7195:7209   */\n      div\n        /* \"#utility.yul\":7188:7193   */\n      dup2\n        /* \"#utility.yul\":7185:7210   */\n      gt\n        /* \"#utility.yul\":7182:7233   */\n      iszero\n      tag_161\n      jumpi\n        /* \"#utility.yul\":7213:7231   */\n      tag_162\n      tag_62\n      jump\t// in\n    tag_162:\n        /* \"#utility.yul\":7182:7233   */\n    tag_161:\n        /* \"#utility.yul\":7262:7266   */\n      dup2\n        /* \"#utility.yul\":7255:7260   */\n      dup2\n        /* \"#utility.yul\":7251:7267   */\n      mul\n        /* \"#utility.yul\":7242:7267   */\n      swap1\n      pop\n        /* \"#utility.yul\":6200:7273   */\n    tag_147:\n      swap4\n      swap3\n      pop\n      pop\n      pop\n      jump\t// out\n        /* \"#utility.yul\":7279:7560   */\n    tag_38:\n        /* \"#utility.yul\":7337:7342   */\n      0x00\n        /* \"#utility.yul\":7361:7384   */\n      tag_164\n        /* \"#utility.yul\":7379:7383   */\n      dup3\n        /* \"#utility.yul\":7361:7384   */\n      tag_48\n      jump\t// in\n    tag_164:\n        /* \"#utility.yul\":7353:7384   */\n      swap2\n      pop\n        /* \"#utility.yul\":7405:7430   */\n      tag_165\n        /* \"#utility.yul\":7421:7429   */\n      dup4\n        /* \"#utility.yul\":7405:7430   */\n      tag_66\n      jump\t// in\n    tag_165:\n        /* \"#utility.yul\":7393:7430   */\n      swap3\n      pop\n        /* \"#utility.yul\":7449:7553   */\n      tag_166\n        /* \"#utility.yul\":7486:7552   */\n      0xffffffffffffffffffffffffffffffffffffffffffffffffffffffffffffffff\n        /* \"#utility.yul\":7476:7484   */\n      dup5\n        /* \"#utility.yul\":7470:7474   */\n      dup5\n        /* \"#utility.yul\":7449:7553   */\n      tag_71\n      jump\t// in\n    tag_166:\n        /* \"#utility.yul\":7440:7553   */\n      swap1\n      pop\n        /* \"#utility.yul\":7279:7560   */\n      swap3\n      swap2\n      pop\n      pop\n      jump\t// out\n        /* \"#utility.yul\":7566:8008   */\n    tag_41:\n        /* \"#utility.yul\":7715:7719   */\n      0x00\n        /* \"#utility.yul\":7753:7755   */\n      0x60\n        /* \"#utility.yul\":7742:7751   */\n      dup3\n        /* \"#utility.yul\":7738:7756   */\n      add\n        /* \"#utility.yul\":7730:7756   */\n      swap1\n      pop\n        /* \"#utility.yul\":7766:7837   */\n      tag_168\n        /* \"#utility.yul\":7834:7835   */\n      0x00\n        /* \"#utility.yul\":7823:7832   */\n      dup4\n        /* \"#utility.yul\":7819:7836   */\n      add\n        /* \"#utility.yul\":7810:7816   */\n      dup7\n        /* \"#utility.yul\":7766:7837   */\n      tag_52\n      jump\t// in\n    tag_168:\n        /* \"#utility.yul\":7847:7919   */\n      tag_169\n        /* \"#utility.yul\":7915:7917   */\n      0x20\n        /* \"#utility.yul\":7904:7913   */\n      dup4\n        /* \"#utility.yul\":7900:7918   */\n      add\n        /* \"#utility.yul\":7891:7897   */\n      dup6\n        /* \"#utility.yul\":7847:7919   */\n      tag_52\n      jump\t// in\n    tag_169:\n        /* \"#utility.yul\":7929:8001   */\n      tag_170\n        /* \"#utility.yul\":7997:7999   */\n      0x40\n        /* \"#utility.yul\":7986:7995   */\n      dup4\n        /* \"#utility.yul\":7982:8000   */\n      add\n        /* \"#utility.yul\":7973:7979   */\n      dup5\n        /* \"#utility.yul\":7929:8001   */\n      tag_49\n      jump\t// in\n    tag_170:\n        /* \"#utility.yul\":7566:8008   */\n      swap5\n      swap4\n      pop\n      pop\n      pop\n      pop\n      jump\t// out\n        /* \"#utility.yul\":8014:8104   */\n    tag_72:\n        /* \"#utility.yul\":8048:8055   */\n      0x00\n        /* \"#utility.yul\":8091:8096   */\n      dup2\n        /* \"#utility.yul\":8084:8097   */\n      iszero\n        /* \"#utility.yul\":8077:8098   */\n      iszero\n        /* \"#utility.yul\":8066:8098   */\n      swap1\n      pop\n        /* \"#utility.yul\":8014:8104   */\n      swap2\n      swap1\n      pop\n      jump\t// out\n        /* \"#utility.yul\":8110:8226   */\n    tag_73:\n        /* \"#utility.yul\":8180:8201   */\n      tag_173\n        /* \"#utility.yul\":8195:8200   */\n      dup2\n        /* \"#utility.yul\":8180:8201   */\n      tag_72\n      jump\t// in\n    tag_173:\n        /* \"#utility.yul\":8173:8178   */\n      dup2\n        /* \"#utility.yul\":8170:8202   */\n      eq\n        /* \"#utility.yul\":8160:8220   */\n      tag_174\n      jumpi\n        /* \"#utility.yul\":8216:8217   */\n      0x00\n        /* \"#utility.yul\":8213:8214   */\n      dup1\n        /* \"#utility.yul\":8206:8218   */\n      revert\n        /* \"#utility.yul\":8160:8220   */\n    tag_174:\n        /* \"#utility.yul\":8110:8226   */\n      pop\n      jump\t// out\n        /* \"#utility.yul\":8232:8369   */\n    tag_74:\n        /* \"#utility.yul\":8286:8291   */\n      0x00\n        /* \"#utility.yul\":8317:8323   */\n      dup2\n        /* \"#utility.yul\":8311:8324   */\n      mload\n        /* \"#utility.yul\":8302:8324   */\n      swap1\n      pop\n        /* \"#utility.yul\":8333:8363   */\n      tag_176\n        /* \"#utility.yul\":8357:8362   */\n      dup2\n        /* \"#utility.yul\":8333:8363   */\n      tag_73\n      jump\t// in\n    tag_176:\n        /* \"#utility.yul\":8232:8369   */\n      swap3\n      swap2\n      pop\n      pop\n      jump\t// out\n        /* \"#utility.yul\":8375:8720   */\n    tag_45:\n        /* \"#utility.yul\":8442:8448   */\n      0x00\n        /* \"#utility.yul\":8491:8493   */\n      0x20\n        /* \"#utility.yul\":8479:8488   */\n      dup3\n        /* \"#utility.yul\":8470:8477   */\n      dup5\n        /* \"#utility.yul\":8466:8489   */\n      sub\n        /* \"#utility.yul\":8462:8494   */\n      slt\n        /* \"#utility.yul\":8459:8578   */\n      iszero\n      tag_178\n      jumpi\n        /* \"#utility.yul\":8497:8576   */\n      tag_179\n      tag_64\n      jump\t// in\n    tag_179:\n        /* \"#utility.yul\":8459:8578   */\n    tag_178:\n        /* \"#utility.yul\":8617:8618   */\n      0x00\n        /* \"#utility.yul\":8642:8703   */\n      tag_180\n        /* \"#utility.yul\":8695:8702   */\n      dup5\n        /* \"#utility.yul\":8686:8692   */\n      dup3\n        /* \"#utility.yul\":8675:8684   */\n      dup6\n        /* \"#utility.yul\":8671:8693   */\n      add\n        /* \"#utility.yul\":8642:8703   */\n      tag_74\n      jump\t// in\n    tag_180:\n        /* \"#utility.yul\":8632:8703   */\n      swap2\n      pop\n        /* \"#utility.yul\":8588:8713   */\n      pop\n        /* \"#utility.yul\":8375:8720   */\n      swap3\n      swap2\n      pop\n      pop\n      jump\t// out\n\n    auxdata: 0xa264697066735822122061dad0fd610ea3de5b7c5eee322f679d4cdb160de9d875e73a072ea1864155b264736f6c63430008100033\n}\n",
				"bytecode": {
					"linkReferences": {},
					"object": "6080604052670de0b6b3a764000060005534801561001c57600080fd5b50604051610a0e380380610a0e833981810160405281019061003e9190610129565b33600260006101000a81548173ffffffffffffffffffffffffffffffffffffffff021916908373ffffffffffffffffffffffffffffffffffffffff16021790555080600160006101000a81548173ffffffffffffffffffffffffffffffffffffffff021916908373ffffffffffffffffffffffffffffffffffffffff16021790555050610156565b600080fd5b600073ffffffffffffffffffffffffffffffffffffffff82169050919050565b60006100f6826100cb565b9050919050565b610106816100eb565b811461011157600080fd5b50565b600081519050610123816100fd565b92915050565b60006020828403121561013f5761013e6100c6565b5b600061014d84828501610114565b91505092915050565b6108a9806101656000396000f3fe60806040526004361061003f5760003560e01c80632f8de810146100445780634419d6131461006f578063a3e6761014610079578063fc0c546a146100a4575b600080fd5b34801561005057600080fd5b506100596100cf565b6040516100669190610363565b60405180910390f35b6100776100d5565b005b34801561008557600080fd5b5061008e6102fe565b60405161009b91906103bf565b60405180910390f35b3480156100b057600080fd5b506100b9610324565b6040516100c69190610439565b60405180910390f35b60005481565b60005434101561011a576040517f08c379a0000000000000000000000000000000000000000000000000000000008152600401610111906104b1565b60405180910390fd5b6000805434610129919061052f565b9050600080548261013a9190610560565b3461014591906105ba565b9050600160009054906101000a900473ffffffffffffffffffffffffffffffffffffffff1673ffffffffffffffffffffffffffffffffffffffff166323b872dd600260009054906101000a900473ffffffffffffffffffffffffffffffffffffffff1633600160009054906101000a900473ffffffffffffffffffffffffffffffffffffffff1673ffffffffffffffffffffffffffffffffffffffff1663313ce5676040518163ffffffff1660e01b8152600401602060405180830381865afa158015610216573d6000803e3d6000fd5b505050506040513d601f19601f8201168201806040525081019061023a919061062c565b600a610246919061078c565b866102519190610560565b6040518463ffffffff1660e01b815260040161026f939291906107d7565b6020604051808303816000875af115801561028e573d6000803e3d6000fd5b505050506040513d601f19601f820116820180604052508101906102b29190610846565b503373ffffffffffffffffffffffffffffffffffffffff166108fc829081150290604051600060405180830381858888f193505050501580156102f9573d6000803e3d6000fd5b505050565b600260009054906101000a900473ffffffffffffffffffffffffffffffffffffffff1681565b600160009054906101000a900473ffffffffffffffffffffffffffffffffffffffff1681565b6000819050919050565b61035d8161034a565b82525050565b60006020820190506103786000830184610354565b92915050565b600073ffffffffffffffffffffffffffffffffffffffff82169050919050565b60006103a98261037e565b9050919050565b6103b98161039e565b82525050565b60006020820190506103d460008301846103b0565b92915050565b6000819050919050565b60006103ff6103fa6103f58461037e565b6103da565b61037e565b9050919050565b6000610411826103e4565b9050919050565b600061042382610406565b9050919050565b61043381610418565b82525050565b600060208201905061044e600083018461042a565b92915050565b600082825260208201905092915050565b7f4e6f7420456e6f756768206d6f6e65792073656e740000000000000000000000600082015250565b600061049b601583610454565b91506104a682610465565b602082019050919050565b600060208201905081810360008301526104ca8161048e565b9050919050565b7f4e487b7100000000000000000000000000000000000000000000000000000000600052601260045260246000fd5b7f4e487b7100000000000000000000000000000000000000000000000000000000600052601160045260246000fd5b600061053a8261034a565b91506105458361034a565b925082610555576105546104d1565b5b828204905092915050565b600061056b8261034a565b91506105768361034a565b9250817fffffffffffffffffffffffffffffffffffffffffffffffffffffffffffffffff04831182151516156105af576105ae610500565b5b828202905092915050565b60006105c58261034a565b91506105d08361034a565b92508282039050818111156105e8576105e7610500565b5b92915050565b600080fd5b600060ff82169050919050565b610609816105f3565b811461061457600080fd5b50565b60008151905061062681610600565b92915050565b600060208284031215610642576106416105ee565b5b600061065084828501610617565b91505092915050565b60008160011c9050919050565b6000808291508390505b60018511156106b05780860481111561068c5761068b610500565b5b600185161561069b5780820291505b80810290506106a985610659565b9450610670565b94509492505050565b6000826106c95760019050610785565b816106d75760009050610785565b81600181146106ed57600281146106f757610726565b6001915050610785565b60ff84111561070957610708610500565b5b8360020a9150848211156107205761071f610500565b5b50610785565b5060208310610133831016604e8410600b841016171561075b5782820a90508381111561075657610755610500565b5b610785565b6107688484846001610666565b9250905081840481111561077f5761077e610500565b5b81810290505b9392505050565b60006107978261034a565b91506107a2836105f3565b92506107cf7fffffffffffffffffffffffffffffffffffffffffffffffffffffffffffffffff84846106b9565b905092915050565b60006060820190506107ec60008301866103b0565b6107f960208301856103b0565b6108066040830184610354565b949350505050565b60008115159050919050565b6108238161080e565b811461082e57600080fd5b50565b6000815190506108408161081a565b92915050565b60006020828403121561085c5761085b6105ee565b5b600061086a84828501610831565b9150509291505056fea264697066735822122061dad0fd610ea3de5b7c5eee322f679d4cdb160de9d875e73a072ea1864155b264736f6c63430008100033",
					"opcodes": "PUSH1 0x80 PUSH1 0x40 MSTORE PUSH8 0xDE0B6B3A7640000 PUSH1 0x0 SSTORE CALLVALUE DUP1 ISZERO PUSH2 0x1C JUMPI PUSH1 0x0 DUP1 REVERT JUMPDEST POP PUSH1 0x40 MLOAD PUSH2 0xA0E CODESIZE SUB DUP1 PUSH2 0xA0E DUP4 CODECOPY DUP2 DUP2 ADD PUSH1 0x40 MSTORE DUP2 ADD SWAP1 PUSH2 0x3E SWAP2 SWAP1 PUSH2 0x129 JUMP JUMPDEST CALLER PUSH1 0x2 PUSH1 0x0 PUSH2 0x100 EXP DUP2 SLOAD DUP2 PUSH20 0xFFFFFFFFFFFFFFFFFFFFFFFFFFFFFFFFFFFFFFFF MUL NOT AND SWAP1 DUP4 PUSH20 0xFFFFFFFFFFFFFFFFFFFFFFFFFFFFFFFFFFFFFFFF AND MUL OR SWAP1 SSTORE POP DUP1 PUSH1 0x1 PUSH1 0x0 PUSH2 0x100 EXP DUP2 SLOAD DUP2 PUSH20 0xFFFFFFFFFFFFFFFFFFFFFFFFFFFFFFFFFFFFFFFF MUL NOT AND SWAP1 DUP4 PUSH20 0xFFFFFFFFFFFFFFFFFFFFFFFFFFFFFFFFFFFFFFFF AND MUL OR SWAP1 SSTORE POP POP PUSH2 0x156 JUMP JUMPDEST PUSH1 0x0 DUP1 REVERT JUMPDEST PUSH1 0x0 PUSH20 0xFFFFFFFFFFFFFFFFFFFFFFFFFFFFFFFFFFFFFFFF DUP3 AND SWAP1 POP SWAP2 SWAP1 POP JUMP JUMPDEST PUSH1 0x0 PUSH2 0xF6 DUP3 PUSH2 0xCB JUMP JUMPDEST SWAP1 POP SWAP2 SWAP1 POP JUMP JUMPDEST PUSH2 0x106 DUP2 PUSH2 0xEB JUMP JUMPDEST DUP2 EQ PUSH2 0x111 JUMPI PUSH1 0x0 DUP1 REVERT JUMPDEST POP JUMP JUMPDEST PUSH1 0x0 DUP2 MLOAD SWAP1 POP PUSH2 0x123 DUP2 PUSH2 0xFD JUMP JUMPDEST SWAP3 SWAP2 POP POP JUMP JUMPDEST PUSH1 0x0 PUSH1 0x20 DUP3 DUP5 SUB SLT ISZERO PUSH2 0x13F JUMPI PUSH2 0x13E PUSH2 0xC6 JUMP JUMPDEST JUMPDEST PUSH1 0x0 PUSH2 0x14D DUP5 DUP3 DUP6 ADD PUSH2 0x114 JUMP JUMPDEST SWAP2 POP POP SWAP3 SWAP2 POP POP JUMP JUMPDEST PUSH2 0x8A9 DUP1 PUSH2 0x165 PUSH1 0x0 CODECOPY PUSH1 0x0 RETURN INVALID PUSH1 0x80 PUSH1 0x40 MSTORE PUSH1 0x4 CALLDATASIZE LT PUSH2 0x3F JUMPI PUSH1 0x0 CALLDATALOAD PUSH1 0xE0 SHR DUP1 PUSH4 0x2F8DE810 EQ PUSH2 0x44 JUMPI DUP1 PUSH4 0x4419D613 EQ PUSH2 0x6F JUMPI DUP1 PUSH4 0xA3E67610 EQ PUSH2 0x79 JUMPI DUP1 PUSH4 0xFC0C546A EQ PUSH2 0xA4 JUMPI JUMPDEST PUSH1 0x0 DUP1 REVERT JUMPDEST CALLVALUE DUP1 ISZERO PUSH2 0x50 JUMPI PUSH1 0x0 DUP1 REVERT JUMPDEST POP PUSH2 0x59 PUSH2 0xCF JUMP JUMPDEST PUSH1 0x40 MLOAD PUSH2 0x66 SWAP2 SWAP1 PUSH2 0x363 JUMP JUMPDEST PUSH1 0x40 MLOAD DUP1 SWAP2 SUB SWAP1 RETURN JUMPDEST PUSH2 0x77 PUSH2 0xD5 JUMP JUMPDEST STOP JUMPDEST CALLVALUE DUP1 ISZERO PUSH2 0x85 JUMPI PUSH1 0x0 DUP1 REVERT JUMPDEST POP PUSH2 0x8E PUSH2 0x2FE JUMP JUMPDEST PUSH1 0x40 MLOAD PUSH2 0x9B SWAP2 SWAP1 PUSH2 0x3BF JUMP JUMPDEST PUSH1 0x40 MLOAD DUP1 SWAP2 SUB SWAP1 RETURN JUMPDEST CALLVALUE DUP1 ISZERO PUSH2 0xB0 JUMPI PUSH1 0x0 DUP1 REVERT JUMPDEST POP PUSH2 0xB9 PUSH2 0x324 JUMP JUMPDEST PUSH1 0x40 MLOAD PUSH2 0xC6 SWAP2 SWAP1 PUSH2 0x439 JUMP JUMPDEST PUSH1 0x40 MLOAD DUP1 SWAP2 SUB SWAP1 RETURN JUMPDEST PUSH1 0x0 SLOAD DUP2 JUMP JUMPDEST PUSH1 0x0 SLOAD CALLVALUE LT ISZERO PUSH2 0x11A JUMPI PUSH1 0x40 MLOAD PUSH32 0x8C379A000000000000000000000000000000000000000000000000000000000 DUP2 MSTORE PUSH1 0x4 ADD PUSH2 0x111 SWAP1 PUSH2 0x4B1 JUMP JUMPDEST PUSH1 0x40 MLOAD DUP1 SWAP2 SUB SWAP1 REVERT JUMPDEST PUSH1 0x0 DUP1 SLOAD CALLVALUE PUSH2 0x129 SWAP2 SWAP1 PUSH2 0x52F JUMP JUMPDEST SWAP1 POP PUSH1 0x0 DUP1 SLOAD DUP3 PUSH2 0x13A SWAP2 SWAP1 PUSH2 0x560 JUMP JUMPDEST CALLVALUE PUSH2 0x145 SWAP2 SWAP1 PUSH2 0x5BA JUMP JUMPDEST SWAP1 POP PUSH1 0x1 PUSH1 0x0 SWAP1 SLOAD SWAP1 PUSH2 0x100 EXP SWAP1 DIV PUSH20 0xFFFFFFFFFFFFFFFFFFFFFFFFFFFFFFFFFFFFFFFF AND PUSH20 0xFFFFFFFFFFFFFFFFFFFFFFFFFFFFFFFFFFFFFFFF AND PUSH4 0x23B872DD PUSH1 0x2 PUSH1 0x0 SWAP1 SLOAD SWAP1 PUSH2 0x100 EXP SWAP1 DIV PUSH20 0xFFFFFFFFFFFFFFFFFFFFFFFFFFFFFFFFFFFFFFFF AND CALLER PUSH1 0x1 PUSH1 0x0 SWAP1 SLOAD SWAP1 PUSH2 0x100 EXP SWAP1 DIV PUSH20 0xFFFFFFFFFFFFFFFFFFFFFFFFFFFFFFFFFFFFFFFF AND PUSH20 0xFFFFFFFFFFFFFFFFFFFFFFFFFFFFFFFFFFFFFFFF AND PUSH4 0x313CE567 PUSH1 0x40 MLOAD DUP2 PUSH4 0xFFFFFFFF AND PUSH1 0xE0 SHL DUP2 MSTORE PUSH1 0x4 ADD PUSH1 0x20 PUSH1 0x40 MLOAD DUP1 DUP4 SUB DUP2 DUP7 GAS STATICCALL ISZERO DUP1 ISZERO PUSH2 0x216 JUMPI RETURNDATASIZE PUSH1 0x0 DUP1 RETURNDATACOPY RETURNDATASIZE PUSH1 0x0 REVERT JUMPDEST POP POP POP POP PUSH1 0x40 MLOAD RETURNDATASIZE PUSH1 0x1F NOT PUSH1 0x1F DUP3 ADD AND DUP3 ADD DUP1 PUSH1 0x40 MSTORE POP DUP2 ADD SWAP1 PUSH2 0x23A SWAP2 SWAP1 PUSH2 0x62C JUMP JUMPDEST PUSH1 0xA PUSH2 0x246 SWAP2 SWAP1 PUSH2 0x78C JUMP JUMPDEST DUP7 PUSH2 0x251 SWAP2 SWAP1 PUSH2 0x560 JUMP JUMPDEST PUSH1 0x40 MLOAD DUP5 PUSH4 0xFFFFFFFF AND PUSH1 0xE0 SHL DUP2 MSTORE PUSH1 0x4 ADD PUSH2 0x26F SWAP4 SWAP3 SWAP2 SWAP1 PUSH2 0x7D7 JUMP JUMPDEST PUSH1 0x20 PUSH1 0x40 MLOAD DUP1 DUP4 SUB DUP2 PUSH1 0x0 DUP8 GAS CALL ISZERO DUP1 ISZERO PUSH2 0x28E JUMPI RETURNDATASIZE PUSH1 0x0 DUP1 RETURNDATACOPY RETURNDATASIZE PUSH1 0x0 REVERT JUMPDEST POP POP POP POP PUSH1 0x40 MLOAD RETURNDATASIZE PUSH1 0x1F NOT PUSH1 0x1F DUP3 ADD AND DUP3 ADD DUP1 PUSH1 0x40 MSTORE POP DUP2 ADD SWAP1 PUSH2 0x2B2 SWAP2 SWAP1 PUSH2 0x846 JUMP JUMPDEST POP CALLER PUSH20 0xFFFFFFFFFFFFFFFFFFFFFFFFFFFFFFFFFFFFFFFF AND PUSH2 0x8FC DUP3 SWAP1 DUP2 ISZERO MUL SWAP1 PUSH1 0x40 MLOAD PUSH1 0x0 PUSH1 0x40 MLOAD DUP1 DUP4 SUB DUP2 DUP6 DUP9 DUP9 CALL SWAP4 POP POP POP POP ISZERO DUP1 ISZERO PUSH2 0x2F9 JUMPI RETURNDATASIZE PUSH1 0x0 DUP1 RETURNDATACOPY RETURNDATASIZE PUSH1 0x0 REVERT JUMPDEST POP POP POP JUMP JUMPDEST PUSH1 0x2 PUSH1 0x0 SWAP1 SLOAD SWAP1 PUSH2 0x100 EXP SWAP1 DIV PUSH20 0xFFFFFFFFFFFFFFFFFFFFFFFFFFFFFFFFFFFFFFFF AND DUP2 JUMP JUMPDEST PUSH1 0x1 PUSH1 0x0 SWAP1 SLOAD SWAP1 PUSH2 0x100 EXP SWAP1 DIV PUSH20 0xFFFFFFFFFFFFFFFFFFFFFFFFFFFFFFFFFFFFFFFF AND DUP2 JUMP JUMPDEST PUSH1 0x0 DUP2 SWAP1 POP SWAP2 SWAP1 POP JUMP JUMPDEST PUSH2 0x35D DUP2 PUSH2 0x34A JUMP JUMPDEST DUP3 MSTORE POP POP JUMP JUMPDEST PUSH1 0x0 PUSH1 0x20 DUP3 ADD SWAP1 POP PUSH2 0x378 PUSH1 0x0 DUP4 ADD DUP5 PUSH2 0x354 JUMP JUMPDEST SWAP3 SWAP2 POP POP JUMP JUMPDEST PUSH1 0x0 PUSH20 0xFFFFFFFFFFFFFFFFFFFFFFFFFFFFFFFFFFFFFFFF DUP3 AND SWAP1 POP SWAP2 SWAP1 POP JUMP JUMPDEST PUSH1 0x0 PUSH2 0x3A9 DUP3 PUSH2 0x37E JUMP JUMPDEST SWAP1 POP SWAP2 SWAP1 POP JUMP JUMPDEST PUSH2 0x3B9 DUP2 PUSH2 0x39E JUMP JUMPDEST DUP3 MSTORE POP POP JUMP JUMPDEST PUSH1 0x0 PUSH1 0x20 DUP3 ADD SWAP1 POP PUSH2 0x3D4 PUSH1 0x0 DUP4 ADD DUP5 PUSH2 0x3B0 JUMP JUMPDEST SWAP3 SWAP2 POP POP JUMP JUMPDEST PUSH1 0x0 DUP2 SWAP1 POP SWAP2 SWAP1 POP JUMP JUMPDEST PUSH1 0x0 PUSH2 0x3FF PUSH2 0x3FA PUSH2 0x3F5 DUP5 PUSH2 0x37E JUMP JUMPDEST PUSH2 0x3DA JUMP JUMPDEST PUSH2 0x37E JUMP JUMPDEST SWAP1 POP SWAP2 SWAP1 POP JUMP JUMPDEST PUSH1 0x0 PUSH2 0x411 DUP3 PUSH2 0x3E4 JUMP JUMPDEST SWAP1 POP SWAP2 SWAP1 POP JUMP JUMPDEST PUSH1 0x0 PUSH2 0x423 DUP3 PUSH2 0x406 JUMP JUMPDEST SWAP1 POP SWAP2 SWAP1 POP JUMP JUMPDEST PUSH2 0x433 DUP2 PUSH2 0x418 JUMP JUMPDEST DUP3 MSTORE POP POP JUMP JUMPDEST PUSH1 0x0 PUSH1 0x20 DUP3 ADD SWAP1 POP PUSH2 0x44E PUSH1 0x0 DUP4 ADD DUP5 PUSH2 0x42A JUMP JUMPDEST SWAP3 SWAP2 POP POP JUMP JUMPDEST PUSH1 0x0 DUP3 DUP3 MSTORE PUSH1 0x20 DUP3 ADD SWAP1 POP SWAP3 SWAP2 POP POP JUMP JUMPDEST PUSH32 0x4E6F7420456E6F756768206D6F6E65792073656E740000000000000000000000 PUSH1 0x0 DUP3 ADD MSTORE POP JUMP JUMPDEST PUSH1 0x0 PUSH2 0x49B PUSH1 0x15 DUP4 PUSH2 0x454 JUMP JUMPDEST SWAP2 POP PUSH2 0x4A6 DUP3 PUSH2 0x465 JUMP JUMPDEST PUSH1 0x20 DUP3 ADD SWAP1 POP SWAP2 SWAP1 POP JUMP JUMPDEST PUSH1 0x0 PUSH1 0x20 DUP3 ADD SWAP1 POP DUP2 DUP2 SUB PUSH1 0x0 DUP4 ADD MSTORE PUSH2 0x4CA DUP2 PUSH2 0x48E JUMP JUMPDEST SWAP1 POP SWAP2 SWAP1 POP JUMP JUMPDEST PUSH32 0x4E487B7100000000000000000000000000000000000000000000000000000000 PUSH1 0x0 MSTORE PUSH1 0x12 PUSH1 0x4 MSTORE PUSH1 0x24 PUSH1 0x0 REVERT JUMPDEST PUSH32 0x4E487B7100000000000000000000000000000000000000000000000000000000 PUSH1 0x0 MSTORE PUSH1 0x11 PUSH1 0x4 MSTORE PUSH1 0x24 PUSH1 0x0 REVERT JUMPDEST PUSH1 0x0 PUSH2 0x53A DUP3 PUSH2 0x34A JUMP JUMPDEST SWAP2 POP PUSH2 0x545 DUP4 PUSH2 0x34A JUMP JUMPDEST SWAP3 POP DUP3 PUSH2 0x555 JUMPI PUSH2 0x554 PUSH2 0x4D1 JUMP JUMPDEST JUMPDEST DUP3 DUP3 DIV SWAP1 POP SWAP3 SWAP2 POP POP JUMP JUMPDEST PUSH1 0x0 PUSH2 0x56B DUP3 PUSH2 0x34A JUMP JUMPDEST SWAP2 POP PUSH2 0x576 DUP4 PUSH2 0x34A JUMP JUMPDEST SWAP3 POP DUP2 PUSH32 0xFFFFFFFFFFFFFFFFFFFFFFFFFFFFFFFFFFFFFFFFFFFFFFFFFFFFFFFFFFFFFFFF DIV DUP4 GT DUP3 ISZERO ISZERO AND ISZERO PUSH2 0x5AF JUMPI PUSH2 0x5AE PUSH2 0x500 JUMP JUMPDEST JUMPDEST DUP3 DUP3 MUL SWAP1 POP SWAP3 SWAP2 POP POP JUMP JUMPDEST PUSH1 0x0 PUSH2 0x5C5 DUP3 PUSH2 0x34A JUMP JUMPDEST SWAP2 POP PUSH2 0x5D0 DUP4 PUSH2 0x34A JUMP JUMPDEST SWAP3 POP DUP3 DUP3 SUB SWAP1 POP DUP2 DUP2 GT ISZERO PUSH2 0x5E8 JUMPI PUSH2 0x5E7 PUSH2 0x500 JUMP JUMPDEST JUMPDEST SWAP3 SWAP2 POP POP JUMP JUMPDEST PUSH1 0x0 DUP1 REVERT JUMPDEST PUSH1 0x0 PUSH1 0xFF DUP3 AND SWAP1 POP SWAP2 SWAP1 POP JUMP JUMPDEST PUSH2 0x609 DUP2 PUSH2 0x5F3 JUMP JUMPDEST DUP2 EQ PUSH2 0x614 JUMPI PUSH1 0x0 DUP1 REVERT JUMPDEST POP JUMP JUMPDEST PUSH1 0x0 DUP2 MLOAD SWAP1 POP PUSH2 0x626 DUP2 PUSH2 0x600 JUMP JUMPDEST SWAP3 SWAP2 POP POP JUMP JUMPDEST PUSH1 0x0 PUSH1 0x20 DUP3 DUP5 SUB SLT ISZERO PUSH2 0x642 JUMPI PUSH2 0x641 PUSH2 0x5EE JUMP JUMPDEST JUMPDEST PUSH1 0x0 PUSH2 0x650 DUP5 DUP3 DUP6 ADD PUSH2 0x617 JUMP JUMPDEST SWAP2 POP POP SWAP3 SWAP2 POP POP JUMP JUMPDEST PUSH1 0x0 DUP2 PUSH1 0x1 SHR SWAP1 POP SWAP2 SWAP1 POP JUMP JUMPDEST PUSH1 0x0 DUP1 DUP3 SWAP2 POP DUP4 SWAP1 POP JUMPDEST PUSH1 0x1 DUP6 GT ISZERO PUSH2 0x6B0 JUMPI DUP1 DUP7 DIV DUP2 GT ISZERO PUSH2 0x68C JUMPI PUSH2 0x68B PUSH2 0x500 JUMP JUMPDEST JUMPDEST PUSH1 0x1 DUP6 AND ISZERO PUSH2 0x69B JUMPI DUP1 DUP3 MUL SWAP2 POP JUMPDEST DUP1 DUP2 MUL SWAP1 POP PUSH2 0x6A9 DUP6 PUSH2 0x659 JUMP JUMPDEST SWAP5 POP PUSH2 0x670 JUMP JUMPDEST SWAP5 POP SWAP5 SWAP3 POP POP POP JUMP JUMPDEST PUSH1 0x0 DUP3 PUSH2 0x6C9 JUMPI PUSH1 0x1 SWAP1 POP PUSH2 0x785 JUMP JUMPDEST DUP2 PUSH2 0x6D7 JUMPI PUSH1 0x0 SWAP1 POP PUSH2 0x785 JUMP JUMPDEST DUP2 PUSH1 0x1 DUP2 EQ PUSH2 0x6ED JUMPI PUSH1 0x2 DUP2 EQ PUSH2 0x6F7 JUMPI PUSH2 0x726 JUMP JUMPDEST PUSH1 0x1 SWAP2 POP POP PUSH2 0x785 JUMP JUMPDEST PUSH1 0xFF DUP5 GT ISZERO PUSH2 0x709 JUMPI PUSH2 0x708 PUSH2 0x500 JUMP JUMPDEST JUMPDEST DUP4 PUSH1 0x2 EXP SWAP2 POP DUP5 DUP3 GT ISZERO PUSH2 0x720 JUMPI PUSH2 0x71F PUSH2 0x500 JUMP JUMPDEST JUMPDEST POP PUSH2 0x785 JUMP JUMPDEST POP PUSH1 0x20 DUP4 LT PUSH2 0x133 DUP4 LT AND PUSH1 0x4E DUP5 LT PUSH1 0xB DUP5 LT AND OR ISZERO PUSH2 0x75B JUMPI DUP3 DUP3 EXP SWAP1 POP DUP4 DUP2 GT ISZERO PUSH2 0x756 JUMPI PUSH2 0x755 PUSH2 0x500 JUMP JUMPDEST JUMPDEST PUSH2 0x785 JUMP JUMPDEST PUSH2 0x768 DUP5 DUP5 DUP5 PUSH1 0x1 PUSH2 0x666 JUMP JUMPDEST SWAP3 POP SWAP1 POP DUP2 DUP5 DIV DUP2 GT ISZERO PUSH2 0x77F JUMPI PUSH2 0x77E PUSH2 0x500 JUMP JUMPDEST JUMPDEST DUP2 DUP2 MUL SWAP1 POP JUMPDEST SWAP4 SWAP3 POP POP POP JUMP JUMPDEST PUSH1 0x0 PUSH2 0x797 DUP3 PUSH2 0x34A JUMP JUMPDEST SWAP2 POP PUSH2 0x7A2 DUP4 PUSH2 0x5F3 JUMP JUMPDEST SWAP3 POP PUSH2 0x7CF PUSH32 0xFFFFFFFFFFFFFFFFFFFFFFFFFFFFFFFFFFFFFFFFFFFFFFFFFFFFFFFFFFFFFFFF DUP5 DUP5 PUSH2 0x6B9 JUMP JUMPDEST SWAP1 POP SWAP3 SWAP2 POP POP JUMP JUMPDEST PUSH1 0x0 PUSH1 0x60 DUP3 ADD SWAP1 POP PUSH2 0x7EC PUSH1 0x0 DUP4 ADD DUP7 PUSH2 0x3B0 JUMP JUMPDEST PUSH2 0x7F9 PUSH1 0x20 DUP4 ADD DUP6 PUSH2 0x3B0 JUMP JUMPDEST PUSH2 0x806 PUSH1 0x40 DUP4 ADD DUP5 PUSH2 0x354 JUMP JUMPDEST SWAP5 SWAP4 POP POP POP POP JUMP JUMPDEST PUSH1 0x0 DUP2 ISZERO ISZERO SWAP1 POP SWAP2 SWAP1 POP JUMP JUMPDEST PUSH2 0x823 DUP2 PUSH2 0x80E JUMP JUMPDEST DUP2 EQ PUSH2 0x82E JUMPI PUSH1 0x0 DUP1 REVERT JUMPDEST POP JUMP JUMPDEST PUSH1 0x0 DUP2 MLOAD SWAP1 POP PUSH2 0x840 DUP2 PUSH2 0x81A JUMP JUMPDEST SWAP3 SWAP2 POP POP JUMP JUMPDEST PUSH1 0x0 PUSH1 0x20 DUP3 DUP5 SUB SLT ISZERO PUSH2 0x85C JUMPI PUSH2 0x85B PUSH2 0x5EE JUMP JUMPDEST JUMPDEST PUSH1 0x0 PUSH2 0x86A DUP5 DUP3 DUP6 ADD PUSH2 0x831 JUMP JUMPDEST SWAP2 POP POP SWAP3 SWAP2 POP POP JUMP INVALID LOG2 PUSH5 0x6970667358 0x22 SLT KECCAK256 PUSH2 0xDAD0 REVERT PUSH2 0xEA3 0xDE JUMPDEST PUSH29 0x5EEE322F679D4CDB160DE9D875E73A072EA1864155B264736F6C634300 ADDMOD LT STOP CALLER "
				},
				"gasEstimates": {
					"creation": {
						"codeDepositCost": "443400",
						"executionCost": "infinite",
						"totalCost": "infinite"
					},
					"external": {
						"purchaseACoffee()": "infinite",
						"token()": "infinite",
						"tokenOwner()": "2536",
						"tokenPriceInWei()": "2407"
					}
				},
				"methodIdentifiers": {
					"purchaseACoffee()": "4419d613",
					"token()": "fc0c546a",
					"tokenOwner()": "a3e67610",
					"tokenPriceInWei()": "2f8de810"
				}
			},
			"storageLayout": {
				"storage": [
					{
						"astId": 21,
						"contract": "contracts/SampleTokenSale.sol:TokenSale",
						"label": "tokenPriceInWei",
						"offset": 0,
						"slot": "0",
						"type": "t_uint256"
					},
					{
						"astId": 24,
						"contract": "contracts/SampleTokenSale.sol:TokenSale",
						"label": "token",
						"offset": 0,
						"slot": "1",
						"type": "t_contract(ERC20)18"
					},
					{
						"astId": 26,
						"contract": "contracts/SampleTokenSale.sol:TokenSale",
						"label": "tokenOwner",
						"offset": 0,
						"slot": "2",
						"type": "t_address"
					}
				],
				"types": {
					"t_address": {
						"encoding": "inplace",
						"label": "address",
						"numberOfBytes": "20"
					},
					"t_contract(ERC20)18": {
						"encoding": "inplace",
						"label": "contract ERC20",
						"numberOfBytes": "20"
					},
					"t_uint256": {
						"encoding": "inplace",
						"label": "uint256",
						"numberOfBytes": "32"
					}
				}
			},
			"userdoc": {
				"kind": "user",
				"methods": {},
				"version": 1
			}
		}
	}
}